:100000000C942E000C944B000C944B000C944B0061
:100010000C944B000C944B000C944B000C944B0034
:100020000C944B000C944B000C944B000C944B0024
:100030000C944B000C944B000C944B000C944B0014
:100040000C944B000C944B000C944B000C944B0004
:100050000C944B000C944B000C944B0011241FBECD
:10006000CFEFD4E0DEBFCDBF11E0A0E0B1E0E6EC21
:10007000F0E002C005900D92A030B107D9F711E071
:10008000A0E0B1E001C01D92A030B107E1F70E94ED
:100090004D000C9461000C9400008FEF8AB981E050
:1000A00090E020E335E78BB9F9013197F1F7880F3C
:1000B000991F880F991F81389105ACF381E090E07A
:0600C000F2CFF894FFCF1F
:00000001FF
