:100000000C942E000C944B000C944B000C944B0061
:100010000C944B000C944B000C944B000C944B0034
:100020000C944B000C944B000C944B000C944B0024
:100030000C944B000C944B000C944B000C944B0014
:100040000C944B000C944B000C944B000C944B0004
:100050000C944B000C944B000C944B0011241FBECD
:10006000CFEFD4E0DEBFCDBF11E0A0E0B1E0E8E427
:10007000F5E002C005900D92A030B107D9F711E06C
:10008000A0E0B1E001C01D92A030B107E1F70E94ED
:100090004D000C94A2020C94000014B88FEF8AB9A2
:1000A00029E1422E512C32E0232E312C83B190E0F5
:1000B000A0E0B0E080389105A105B10538F08F5778
:1000C0009040A040B0407724739401C07724BC01D5
:1000D000CD012AE030E040E050E00E945C026E5C1E
:1000E0007F4F8F4F9F4F0E9443014B015C0120E0E7
:1000F00030E04AE753E40E94D101162F072FF82E73
:10010000E92EA8019701852F942FA32FB22FBC01B0
:10011000CD0120E030E040E85FE30E941301D82EDB
:10012000DD1CDD24DD1CCC24C394A8019701852FA0
:10013000942FA32FB22FBC01CD0120E03FEF4FE75A
:1001400057E40E94CD0118160CF0CC24A8019701A9
:10015000852F902FA32FBE2DBC01CD010E9417012A
:10016000DD2021F091E0E92EF12C01C07B01C8E0F7
:10017000D0E001E010E0772021F0802F80958BB94E
:1001800001C00BB9DD20C9F4CC20B9F0C501B40120
:1001900020E030E040E251E40E94D1010E941701CA
:1001A000DC01CB019C0105C0C2010197F1F7215090
:1001B000304021153105C1F703C0C7010197F1F7A0
:1001C000000F111F2197B9F600E810E0772021F009
:1001D000802F80958BB901C00BB9DD20B1F4CC2004
:1001E000A1F0C501B40120E030E040E251E40E94FA
:1001F000D1010E94170105C0C2010197F1F76150BA
:10020000704061157105C1F703C0C7010197F1F78F
:10021000C801B1010E947B02061B170B02301105B9
:100220000CF444CFD3CF6CD008F481E0089594D07F
:1002300088F09F5790F0B92F9927B751A0F0D1F0CF
:10024000660F771F881F991F1AF0BA95C9F712C059
:10025000B13081F09BD0B1E0089598C0672F782F1E
:100260008827B85F39F0B93FCCF3869577956795C5
:10027000B395D9F73EF490958095709561957F4F31
:100280008F4F9F4F0895E89409C097FB3EF49095D7
:100290008095709561957F4F8F4F9F4F9923A9F05F
:1002A000F92F96E9BB279395F695879577956795EE
:1002B000B795F111F8CFFAF4BB0F11F460FF1BC032
:1002C0006F5F7F4F8F4F9F4F16C0882311F096E9C5
:1002D00011C0772321F09EE8872F762F05C0662373
:1002E00071F096E8862F70E060E02AF09A95660F2C
:1002F000771F881FDAF7880F9695879597F90895E5
:10030000990F0008550FAA0BE0E8FEEF1616170626
:10031000E807F907C0F012161306E407F50798F08E
:10032000621B730B840B950B39F40A2661F0232BA7
:10033000242B252B21F408950A2609F4A140A69523
:100340008FEF811D811D089557FD9058440F551F53
:1003500059F05F3F71F04795880F97FB991F61F047
:100360009F3F79F087950895121613061406551FBE
:10037000F2CF4695F1DF08C0161617061806991F2A
:10038000F1CF86957105610508940895E894BB271F
:1003900066277727CB0197F90895B2DF08F48FEF2E
:1003A00008950BD078C069D028F06ED018F095234E
:1003B00009F05AC05FC01124EACFC6DFA0F3959FB1
:1003C000D1F3950F50E0551F629FF001729FBB273C
:1003D000F00DB11D639FAA27F00DB11DAA1F649FE8
:1003E0006627B00DA11D661F829F2227B00DA11D9B
:1003F000621F739FB00DA11D621F839FA00D611D21
:10040000221F749F3327A00D611D231F849F600D41
:10041000211D822F762F6A2F11249F5750408AF07A
:10042000E1F088234AF0EE0FFF1FBB1F661F771F06
:10043000881F91505040A9F79E3F510570F014C09D
:10044000A6CF5F3FECF3983EDCF3869577956795F2
:10045000B795F795E7959F5FC1F7FE2B880F911D24
:100460009695879597F9089597F99F6780E870E0CA
:1004700060E008959FEF80EC089500240A9416161A
:10048000170618060906089500240A941216130682
:10049000140605060895092E0394000C11F4882310
:1004A00052F0BB0F40F4BF2B11F460FF04C06F5F2C
:1004B0007F4F8F4F9F4F0895629FD001739FF00130
:1004C000829FE00DF11D649FE00DF11D929FF00DE4
:1004D000839FF00D749FF00D659FF00D9927729F1B
:1004E000B00DE11DF91F639FB00DE11DF91FBD01A6
:1004F000CF011124089597FB092E07260AD077FD16
:1005000004D00CD006D000201AF4709561957F4F6E
:100510000895F6F7909581959F4F0895AA1BBB1BF0
:1005200051E107C0AA1FBB1FA617B70710F0A61BF3
:10053000B70B881F991F5A95A9F780959095BC0114
:08054000CD010895F894FFCFEE
:00000001FF
