:100000000C942E000C944B000C944B000C944B0061
:100010000C944B000C944B000C944B000C944B0034
:100020000C944B000C944B000C944B000C944B0024
:100030000C944B000C944B000C944B000C944B0014
:100040000C944B000C944B000C944B000C944B0004
:100050000C944B000C944B000C944B0011241FBECD
:10006000CFEFD4E0DEBFCDBF11E0A0E0B1E0ECEC1B
:10007000F7E002C005900D92A030B107D9F711E06A
:10008000A0E0B1E001C01D92A030B107E1F70E94ED
:1000900094020C94E4030C9400002FEF2AB99C0105
:1000A000B901882777FD8095982F0E94CD024B01DA
:1000B0005C0120E030E04AE753E40E9459037B01F1
:1000C0008C01862F9F2DA02FB12FBC01CD0120E0E8
:1000D00030E040E85FE30E949B02D82EDD1CDD2467
:1000E000DD1CCC24C3948E2D9F2DA02FB12FBC01DD
:1000F000CD0120E03FEF4FE757E40E94550318166B
:100100000CF0CC248E2D9F2DA02FB12FBC01CD0142
:100110000E949F02DD2019F001E010E001C08B0178
:10012000C1E0D0E099E1E92EF12CCBB9DD20B1F4AA
:10013000CC20A1F0C501B40120E030E040E251E460
:100140000E9459030E949F0205C0C7010197F1F761
:100150006150704061157105C1F703C0C801019776
:10016000F1F7CC0FDD1FCC0FDD1FC138D105ECF24C
:10017000C1E0D0E0DACF2FEF2AB99C01B90188277E
:1001800077FD8095982F0E94CD024B015C0120E005
:1001900030E04AE753E40E9459037B018C01862F2B
:1001A0009F2DA02FB12FBC01CD0120E030E040E811
:1001B0005FE30E949B02D82EDD1CDD24DD1CCC24D5
:1001C000C3948E2D9F2DA02FB12FBC01CD0120E017
:1001D0003FEF4FE757E40E94550318160CF0CC246C
:1001E0008E2D9F2DA02FB12FBC01CD010E949F020B
:1001F000DD2019F001E010E001C08B01C0E8D0E083
:1002000039E1E32EF12CCBB9DD20B1F4CC20A1F003
:10021000C501B40120E030E040E251E40E945903FE
:100220000E949F0205C0C7010197F1F7615070401D
:1002300061157105C1F703C0C8010197F1F7D595A4
:10024000C795D595C7951C161D06ECF2C0E8D0E001
:10025000DACFCF93DF9300D000D0CDB7DEB72FEF4A
:100260002AB9F1E04F2E512C9C01442737FD4095CF
:10027000542F29833A834B835C83A9E12A2E312CA6
:100280005BC04BB869817A818B819C810E94CD02D1
:100290004B015C0120E030E04AE753E40E9459033F
:1002A000162F072FF82EE92EA8019701852F942FDE
:1002B000A32FB22FBC01CD0120E030E040E85FE386
:1002C0000E949B0287FD2FC0A8019701852F942FC4
:1002D000A32FB22FBC01CD0120E03FEF4FE757E441
:1002E0000E9455031816A4F4C501B40120E030E0C3
:1002F00040E251E40E9459030E949F0205C0C101DF
:100300000197F1F76150704061157105C1F710C098
:10031000A8019701852F942FA32FB22FBC01CD01E7
:100320000E949F0202C061E070E0CB010197F1F7EB
:10033000440C551C440C551C31E8431651040CF474
:10034000A0CF69817A818B819C810E94CD022B0193
:100350003C0120E030E04AE753E40E9459038B015E
:10036000F82EE92E9701862F912FA32FB22FBC01D3
:10037000CD0120E030E040E85FE30E949B02882E40
:10038000881C8824881CDD24D3949701802F912F0A
:10039000A32FB22FBC01CD0120E03FEF4FE757E480
:1003A0000E94550318160CF0DD249701802F912F21
:1003B000A32FBE2DBC01CD010E949F02882021F0F9
:1003C00071E0E72EF12C01C07B0164E0A62EB12C78
:1003D00000E810E00BB98820B1F4DD20A1F0C301E2
:1003E000B20120E030E040E251E40E9459030E9453
:1003F0009F0205C0C1010197F1F76150704061157E
:100400007105C1F703C0C7010197F1F7159507956D
:10041000159507950894A108B108A114B104D1F667
:1004200041E0442E512C88CF2FEF2AB9C1E0D0E013
:1004300020E8C22ED12C2C01662457FC6094762C27
:1004400039E1232E312C61C080E8C82ED12CC1E0C7
:10045000D0E0C6018C0F9D1F8BB9C301B2010E9471
:10046000CD024B015C0120E030E04AE753E40E94FA
:100470005903162F072FF82EE92EA8019701852F73
:10048000942FA32FB22FBC01CD0120E030E040E833
:100490005FE30E949B0287FD2FC0A8019701852F73
:1004A000942FA32FB22FBC01CD0120E03FEF4FE7E7
:1004B00057E40E9455031816A4F4C501B40120E0C6
:1004C00030E040E251E40E9459030E949F0205C0BF
:1004D000C1010197F1F76150704061157105C1F7D5
:1004E00010C0A8019701852F942FA32FB22FBC0114
:1004F000CD010E949F0202C061E070E0CB01019734
:10050000F1F7D594C794CC0FDD1F81E0C816D10454
:1005100009F49ACFC038D10509F09BCFC1E0D0E0F3
:10052000B0E8CB2ED12CF6CF80ED97E00E941402DC
:1005300081E090E008956CD008F481E0089594D0B3
:1005400088F09F5790F0B92F9927B751A0F0D1F0BC
:10055000660F771F881F991F1AF0BA95C9F712C046
:10056000B13081F09BD0B1E0089598C0672F782F0B
:100570008827B85F39F0B93FCCF3869577956795B2
:10058000B395D9F73EF490958095709561957F4F1E
:100590008F4F9F4F0895E89409C097FB3EF49095C4
:1005A0008095709561957F4F8F4F9F4F9923A9F04C
:1005B000F92F96E9BB279395F695879577956795DB
:1005C000B795F111F8CFFAF4BB0F11F460FF1BC01F
:1005D0006F5F7F4F8F4F9F4F16C0882311F096E9B2
:1005E00011C0772321F09EE8872F762F05C0662360
:1005F00071F096E8862F70E060E02AF09A95660F19
:10060000771F881FDAF7880F9695879597F90895D1
:10061000990F0008550FAA0BE0E8FEEF1616170613
:10062000E807F907C0F012161306E407F50798F07B
:10063000621B730B840B950B39F40A2661F0232B94
:10064000242B252B21F408950A2609F4A140A69510
:100650008FEF811D811D089557FD9058440F551F40
:1006600059F05F3F71F04795880F97FB991F61F034
:100670009F3F79F087950895121613061406551FAB
:10068000F2CF4695F1DF08C0161617061806991F17
:10069000F1CF86957105610508940895E894BB270C
:1006A00066277727CB0197F90895B2DF08F48FEF1B
:1006B00008950BD078C069D028F06ED018F095233B
:1006C00009F05AC05FC01124EACFC6DFA0F3959F9E
:1006D000D1F3950F50E0551F629FF001729FBB2729
:1006E000F00DB11D639FAA27F00DB11DAA1F649FD5
:1006F0006627B00DA11D661F829F2227B00DA11D88
:10070000621F739FB00DA11D621F839FA00D611D0D
:10071000221F749F3327A00D611D231F849F600D2E
:10072000211D822F762F6A2F11249F5750408AF067
:10073000E1F088234AF0EE0FFF1FBB1F661F771FF3
:10074000881F91505040A9F79E3F510570F014C08A
:10075000A6CF5F3FECF3983EDCF3869577956795DF
:10076000B795F795E7959F5FC1F7FE2B880F911D11
:100770009695879597F9089597F99F6780E870E0B7
:1007800060E008959FEF80EC089500240A94161607
:10079000170618060906089500240A94121613066F
:1007A000140605060895092E0394000C11F48823FD
:1007B00052F0BB0F40F4BF2B11F460FF04C06F5F19
:0C07C0007F4F8F4F9F4F0895F894FFCF9C
:00000001FF
