:100000000C942E000C944B000C944B000C944B0061
:100010000C944B000C944B000C944B000C944B0034
:100020000C944B000C944B000C944B000C944B0024
:100030000C944B000C944B000C944B000C944B0014
:100040000C944B000C944B000C944B000C944B0004
:100050000C944B000C944B000C944B0011241FBECD
:10006000CFEFD4E0DEBFCDBF11E0A0E0B1E0E0EA29
:10007000F1E002C005900D92A030B107D9F711E070
:10008000A0E0B1E001C01D92A030B107E1F70E94ED
:100090005D000C94CE000C940000FC0189B11F9B04
:1000A00003C081E090E004C087FFF8CF82E090E0D9
:1000B00091838083808191810895CF93DF93CDB721
:1000C000DEB764970FB6F894DEBF0FBECDBF80ECED
:1000D00090E09A83898389EF90E09C838B8384EA04
:1000E00090E09E838D8380EB90E098878F8389E9F1
:1000F00090E09A87898782E990E09C878B8782E8E5
:1001000090E09E878D8788EF90E0988B8F8780E8BE
:1001100090E09A8B898B88E990E09C8B8B8B8FE7A2
:100120008AB984B9EE24FF24CC24DD2400E010E059
:10013000C8010E944D00F8019183808381309105B0
:1001400079F40894C11CD11CF601EE0FFF1F81E069
:1001500090E08C0F9D1FE80FF91F808185B911C0B9
:100160008230910571F40894E11CF11CF701EE0F47
:10017000FF1F81E090E08C0F9D1FE80FF91F808129
:100180008BB994E0C916D10421F0E3E0EE16F10436
:1001900069F6898185B989818BB9C4CFF894FFCF7D
:00000001FF
