:100000000C942E000C944B000C944B000C944B0061
:100010000C944B000C944B000C944B000C944B0034
:100020000C944B000C944B000C944B000C944B0024
:100030000C944B000C944B000C944B000C944B0014
:100040000C944B000C944B000C944B000C944B0004
:100050000C944B000C944B000C944B0011241FBECD
:10006000CFEFD4E0DEBFCDBF11E0A0E0B1E0EEE81D
:10007000F1E002C005900D92A030B107D9F711E070
:10008000A0E0B1E001C01D92A030B107E1F70E94ED
:1000900051000C94C5000C94000015B88AE090E063
:1000A0000895DF92EF92FF920F931F93CF93DF9308
:1000B000CDB7DEB764970FB6F894DEBF0FBECDBFE5
:1000C00080EC90E09A83898389EF90E09C838B8316
:1000D00084EA90E09E838D8380EB90E098878F8305
:1000E00089E990E09A87898782E990E09C878B87ED
:1000F00082E890E09E878D8788EF90E0988B8F87CD
:1001000080E890E09A8B898B88E990E09C8B8B8BC0
:100110008FEF8AB914B805E010E0DD24DA9439E1F4
:10012000E32EF12C0E944D008A30910599F0FC01DC
:10013000EE0FFF1F81E090E08C0F9D1FE80FF91F6D
:1001400080818BB980E197E2F7013197F1F7019750
:10015000D9F708C0DBB880E49CE9F7013197F1F7E3
:100160000197D9F701501040E9F680E090E06496DD
:100170000FB6F894DEBF0FBECDBFDF91CF911F91B8
:0E0180000F91FF90EF90DF900895F894FFCF5D
:00000001FF
