:100000000C942E000C944B000C944B000C944B0061
:100010000C944B000C944B000C944B000C944B0034
:100020000C944B000C944B000C944B000C944B0024
:100030000C944B000C944B000C944B000C944B0014
:100040000C944B000C944B000C944B000C944B0004
:100050000C944B000C944B000C944B0011241FBECD
:10006000CFEFD4E0DEBFCDBF11E0A0E0B1E0E2E130
:10007000F1E002C005900D92A030B107D9F711E070
:10008000A0E0B1E001C01D92A030B107E1F70E94ED
:1000900081000C9487000C94000014B883B1883060
:1000A000D9F0893038F4823049F1843091F08130D0
:1000B00011F50CC08032B1F0813218F48031D9F4DE
:1000C0000EC0803491F08038B1F412C080E090E02E
:1000D000089582E090E0089583E090E0089584E040
:1000E00090E0089585E090E0089586E090E008951E
:1000F00087E090E008958AE090E0089581E090E044
:1001000008958FEF8AB90E944D008BB9FCCFF89407
:02011000FFCF1F
:00000001FF
