:100000000C942E000C944B000C944B000C944B0061
:100010000C944B000C944B000C944B000C944B0034
:100020000C944B000C944B000C944B000C944B0024
:100030000C944B000C944B000C944B000C944B0014
:100040000C944B000C944B000C944B000C944B0004
:100050000C944B000C944B000C944B0011241FBECD
:10006000CFEFD4E0DEBFCDBF11E0A0E0B1E0E8EB20
:10007000F1E002C005900D92A030B107D9F711E070
:10008000A0E0B1E001C01D92A030B107E1F70E94ED
:1000900080000C94DA000C94000085B18130C1F02E
:1000A00085B18230C1F085B18430C1F085B188302E
:1000B000C1F085B18031C1F085B18032C1F085B128
:1000C0008034C1F085B18038C1F487E090E00895B4
:1000D00080E090E0089581E090E0089582E090E073
:1000E000089583E090E0089584E090E0089585E02D
:1000F00090E0089586E090E008958AE090E0089509
:10010000CF93DF93CDB7DEB764970FB6F894DEBF19
:100110000FBECDBF80EC90E09A83898389EF90E099
:100120009C838B8384EA90E09E838D8380EB90E0B8
:1001300098878F8389E990E09A87898782E990E0A0
:100140009C878B8782E890E09E878D8788EF90E080
:10015000988B8F8780E890E09A8B898B88E990E074
:100160009C8B8B8B8FEF8AB914B809E110E0FF24C8
:10017000FA940E944D008A30910599F0FC01EE0F2F
:10018000FF1F81E090E08C0F9D1FE80FF91F808119
:100190008BB980E197E2F8013197F1F70197D9F730
:1001A000E8CFFBB880E49CE9F8013197F1F70197BB
:0801B000D9F7DFCFF894FFCF6F
:00000001FF
