:100000000C942E000C944B000C944B000C944B0061
:100010000C944B000C944B000C944B000C944B0034
:100020000C944B000C944B000C944B000C944B0024
:100030000C944B000C944B000C944B000C944B0014
:100040000C944B000C944B000C944B000C944B0004
:100050000C944B000C944B000C944B0011241FBECD
:10006000CFEFD4E0DEBFCDBF11E0A0E0B1E0E4EE21
:10007000F0E002C005900D92A030B107D9F711E071
:10008000A0E0B1E001C01D92A030B107E1F70E94ED
:100090004D000C9470000C9400008FEF8AB981E041
:1000A00090E040E850E060E573EC0FC040E850E0BD
:1000B00081E090E09A01280F391F2BB9FB0131979D
:1000C000F1F755954795880F991F4130510571F308
:1000D0008038910579F781E090E040E850E0F8CF72
:0400E000F894FFCFC2
:00000001FF
