:100000000C942E000C944B000C944B000C944B0061
:100010000C944B000C944B000C944B000C944B0034
:100020000C944B000C944B000C944B000C944B0024
:100030000C944B000C944B000C944B000C944B0014
:100040000C944B000C944B000C944B000C944B0004
:100050000C944B000C944B000C944B0011241FBECD
:10006000CFEFD4E0DEBFCDBF11E0A0E0B1E0E4EE21
:10007000F0E002C005900D92A030B107D9F711E071
:10008000A0E0B1E001C01D92A030B107E1F70E94ED
:100090004D000C9470000C9400008FEF8AB981E041
:1000A00090E040E355E708C08BB9FA013197F1F7CA
:1000B000880F991F880F991F81389105ACF384E050
:1000C00090E020E830E02BB9FA013197F1F735954F
:1000D0002795359527950197B1F781E090E0ECCF12
:0400E000F894FFCFC2
:00000001FF
