:100000000C942E000C944B000C944B000C944B0061
:100010000C944B000C944B000C944B000C944B0034
:100020000C944B000C944B000C944B000C944B0024
:100030000C944B000C944B000C944B000C944B0014
:100040000C944B000C944B000C944B000C944B0004
:100050000C944B000C944B000C944B0011241FBECD
:10006000CFEFD4E0DEBFCDBF11E0A0E0B1E0E6EC21
:10007000F1E002C005900D92A030B107D9F711E070
:10008000A0E0B1E001C01D92A030B107E1F70E94ED
:100090004D000C94E1000C94000014B88FEF8AB965
:1000A000C2E0D0E083B190E0A0E0B0E080389105FC
:1000B000A105B10530F08F579040A040B04011E04D
:1000C00001C010E0BC01CD0120E931E040E050E08A
:1000D0000E949B00DC01CB0188579C4EAF4FBF4F65
:1000E00028E030E041E050E0FC01112321F0842FB2
:1000F00080958BB901C04BB9CF010197F1F7440F3F
:10010000551F2150304089F720E830E0112321F0BD
:10011000822F80958BB901C02BB9CF010197F1F7E0
:10012000C901BE010E94BA00261B370B22303105DF
:100130000CF4B8CFEBCF629FD001739FF001829F88
:10014000E00DF11D649FE00DF11D929FF00D839F66
:10015000F00D749FF00D659FF00D9927729FB00D03
:10016000E11DF91F639FB00DE11DF91FBD01CF0116
:100170001124089597FB092E07260AD077FD04D095
:100180000CD006D000201AF4709561957F4F089529
:10019000F6F7909581959F4F0895AA1BBB1B51E1DF
:1001A00007C0AA1FBB1FA617B70710F0A61BB70BE7
:1001B000881F991F5A95A9F780959095BC01CD018C
:0601C0000895F894FFCF42
:00000001FF
