:100000000C942E000C944B000C944B000C944B0061
:100010000C944B000C944B000C944B000C944B0034
:100020000C944B000C944B000C944B000C944B0024
:100030000C944B000C944B000C944B000C944B0014
:100040000C944B000C944B000C944B000C944B0004
:100050000C944B000C944B000C944B0011241FBECD
:10006000CFEFD4E0DEBFCDBF11E0A0E0B1E0ECED1A
:10007000F0E002C005900D92A030B107D9F711E071
:10008000A0E0B1E001C01D92A030B107E1F70E94ED
:100090004D000C946C000C9400008FEF8AB981E045
:1000A00090E040E355E706C08BB9FA013197F1F7CC
:1000B000880F991F81389105BCF388E090E020E813
:1000C00030E02BB9FA013197F1F735952795019773
:0C00D000C1F781E090E0EECFF894FFCF84
:00000001FF
